:020000041000EA
:1000000000B5324B212058609868022188439860DF
:10001000D860186158612E4B002199600221596106
:100020000121F02299502B49196001219960352056
:1000300000F044F80222904214D00621196600F024
:1000400034F8196E01211966002018661A6600F04E
:100050002CF8196E196E196E052000F02FF8012189
:100060000842F9D1002199601B49196000215960AB
:100070001A491B48016001219960EB211966A021F2
:10008000196600F012F800219960164914480160C1
:100090000121996001BC002800D000471248134993
:1000A000086003C880F30888084703B5996A0420EC
:1000B0000142FBD001200142F8D103BD02B5186610
:1000C0001866FFF7F2FF186E186E02BD00000240BE
:1000D000000000180000070000035F00212200005C
:1000E000F4000018222000A00001001008ED00E03C
:1000F00000000000000000000000000074B24E7A12
:1001000000200420F7010010C3010010C5010010F9
:10011000C1010010C1010010C1010010C101001097
:10012000C1010010C1010010C1010010C701001081
:10013000C1010010C1010010C9010010CB01001065
:10014000CD010010CD010010CD010010CD01001037
:10015000CD010010CD010010CD010010CD01001027
:10016000CD010010CD010010CD010010CD01001017
:10017000CD010010CD010010CD010010CD01001007
:10018000CD010010CD010010CD010010CD010010F7
:10019000CD010010CD010010CD010010CD010010E7
:1001A000CD010010CD010010CD010010CD010010D7
:1001B000CD010010CD010010CD010010CD010010C7
:1001C00000BE00BE00BE00BE00BE00BE00F04BF888
:1001D000103800BEF2EB887194540010B454001033
:1001E0003402001090A31AE700202149086006C8D5
:1001F00081F3088810471F48006800282FD10DA4FC
:100200000ECC002902D000F012F8F9E71A491B4A77
:10021000002000E001C19142FCD1194988471949E9
:1002200088471949884700BEFDE701C901C29A42C3
:10023000FBD37047B4540010C00000209804002085
:100240008C58001000000420000004208C5800107E
:1002500000100420001004200000000070470B482C
:1002600001F08CFE0047EFF30580C0B2704700003C
:1002700008ED00E0000000D09804002020120020CB
:10028000B519001035030010A51A001057560000CC
:1002900006005250ABB360535C520010060052503F
:1002A000861C03026C520010060052505422A29D7C
:1002B0007052001005005250DE65F4688C58001032
:1002C000F8B5C04610B5064C2378002B07D1054B76
:1002D000002B02D0044800E000BF0123237010BDB2
:1002E000A007002000000000C8510010044B10B50A
:1002F000002B03D00349044800E000BF10BDC046F6
:1003000000000000A4070020C851001070B5D024E0
:10031000802519202406AD0400F072F86562FA20E9
:100320006561400000F06CFFFA20A561400000F01C
:1003300067FFF4E770B584B002F0B4F8144804F035
:10034000BDFE144D1449280004F0DCFD03211320E8
:1003500000F026F80321122000F022F800220121EB
:10036000132000F035F80F2400220121122000F0A4
:100370002FF8482300266C4423700123220010210B
:100380002800009604F0E8FD044800F039FFF4E787
:100390000D03001068040020A0860100B80B0000C7
:1003A000094A830094464022634410B51C68C0008B
:1003B0006240C02414408022520113431C60034B4E
:1003C0009C466044416010BD04C0014000400140B3
:1003D0000A4B80009C4604236044002901D00C2372
:1003E0000821002A00D10B00026853400C221A4059
:1003F00080235B01184302607047C04604C001407F
:100400000123D0228340120693629361094A83003C
:100410009446402263441968C0004A40C0211140FC
:100420008022520113431960034B9C46052360440C
:100430004360704704C001400040014070B5EFF3D5
:10044000108C72B60D4D2B68002BFCD0BFF35F8F64
:100450000724CB08C618C05C01230C40A3401C0035
:100460000440034207D103433370BFF35F8F2C6016
:100470008CF3108870BD100001F016FB2C0100D029
:10048000F8B54746CE46884680B5EFF3108C72B675
:10049000214D2C68002CFCD0BFF35F8F9A422CD8E2
:1004A000D4080727055D061901241740BC402C42DB
:1004B0001FD007210127894609E0D408055D0619E8
:1004C0004C4639001440A1400C00294211D00132A1
:1004D0009342F2D201204042BFF35F8F00220E4BC5
:1004E0001A608CF3108800280FDBC0BCB946B046F8
:1004F000F8BD2C4310003470EEE7BFF35F8F00238C
:100500002B608CF31088012040424346002BECD036
:10051000089801F0C9FAC0462C0100D0024B1868B7
:100520008007C00F7047C04600C006400021044B42
:10053000044ABFF35F8F02C39342FAD17047C046AB
:10054000000100D0800100D0044A1078431CDBB2C7
:10055000172B00D9102313707047C0468803002062
:1005600000B5054B83B00100009318221F230348F8
:10057000FFF786FF03B000BDC8510010200D00201A
:1005800001238340002904D0034A1360034A136007
:100590007047034A1360FBE780E200E000E100E0FF
:1005A00080E100E001228240034B1B6813405A1E89
:1005B0009341D8B27047C04600E100E00123834078
:1005C000014A13607047C04600E200E0084B10305B
:1005D0009B688000C358002B07D0064A00209B1A56
:1005E0002F229A424041C0B270470020FCE7C0462B
:1005F00000ED00E08C030020024B10309B6880006F
:10060000C058704700ED00E070B50D00EFF31086A4
:1006100072B60F4A1368002BFCD0BFF35F8F0D4BEF
:1006200010309B6884001B590B4A934203D09D42B3
:1006300001D001F051FA074B9B681D51BFF35F8F4A
:10064000BFF35F8F0022024B1A6086F3108870BDE3
:10065000240100D000ED00E0CD010010F0B55746B8
:100660004E46DE464546E0B585B0060002911700CD
:10067000EFF3108B72B6674A1368002BFCD0BFF300
:100680005F8F0025644B5D579A46002D00DAA5E088
:100690006B00624C03935B199B009846A146C144D2
:1006A0004B4652469B79103613705D4BB2009B68E7
:1006B000019299580B1B2F2B34D95A4B994200D0D9
:1006C000A5E0039B584A9C46584B6544AD006353D4
:1006D000434602336519E418554B0121043B1B1BAB
:1006E0001B055B0D13436B80524BEF71AB80FF23F7
:1006F000AB71029BAB604B460B431900484B019A10
:100700009B689950BFF35F8FBFF35F8F0022414B0F
:100710001A608BF3108805B0F0BCBB46B246A94600
:10072000A046F0BD01200A008243D379BB422FD8F6
:1007300045464E46130040491B1B5B415943090D7A
:100740003A4B63533A4B02356519043B5B1B1B055F
:10075000354D5B0D2B4373800426B446E04444447E
:10076000131F1B1B4C46A17102991B05A160494632
:100770005B0D2B43A380314BE77101431360BDE751
:100780005800C01880002018C679BE422CD902003B
:100790000623D356002BF3DA101D8246BD2000023B
:1007A000804604267642B446E14450464E46361A08
:1007B0003005400D824656461B489571064396808B
:1007C000039A944665441D4AAD006419226042466E
:1007D000A371029BA280E771A3608FE701F07CF90F
:1007E000002553465D5753E7101D8246908840050B
:1007F000001584464046D444664604302018301A1A
:10080000E0260005400D360230438046C9E701F07E
:1008100063F956E7240100D01A1200208C0300204F
:1008200000ED00E0CD01001000E0FFFF00A1FFFFA0
:10083000BC03002000BDFFFFAAAA000001488047BA
:10084000F0B5DE4657464E464546E0B50C0083B04F
:10085000EFF3108A72B65A4A1368002BFCD0BFF32C
:100860005F8F1022914681444A46564B96009B6802
:100870009D59554B98469D4205D0A54216D0534FE1
:10088000EB1B2F2B14D94F4B9B689D51BFF35F8FF0
:10089000BFF35F8F00224A4B1A608AF3108803B0BF
:1008A000F0BCBB46B246A946A046F0BD1D00EAE733
:1008B000012383409B465A46454B1B681A400092D1
:1008C0005A46444B1A60BFF35F8FFFF7CCFC019090
:1008D000002803D0814501D001F0FEF801232A0051
:1008E0009A4393689C4208D15FE04B005B189B00E1
:1008F000FB189968A14211D01A000621515600290F
:10090000F3DA009B002B05D05A46334B1A60304B6C
:100910001A60B8E75A462F4B1A60B4E706215956B9
:10092000002921DB4A00501880003C188046A0684E
:100930009860E079D871062020569871002824DB51
:10094000A488F81A6405241544440019E02400051D
:10095000400D2402204398805218204B9200BF186B
:100960001A781970BA71CCE70199002910D1FF31BA
:1009700091711B49918019490A789A71194ADB1BB8
:100980005B415A43120D0A70BBE7BD200002E2E74B
:10099000154A1649D21A083A5002400D014399806F
:1009A000134952080A43DA80ABE706215156130077
:1009B0000029B7DA019A002AEAD14546DBE7C046AA
:1009C000240100D000ED00E0CD0100108C030020D8
:1009D00000E100E080E100E080E200E01A12002087
:1009E00000BDFFFFAAAA0000C603002000F0FFFF21
:1009F00000F8FFFFF8B5012504000543FFF733FCBD
:100A0000EFF3108C72B6214A1368002BFCD0BFF3B1
:100A10005F8F1F4E2100B7681E4A1F4B891A49413C
:100A20004B431B0D59B28300F858A8421CD0062333
:100A3000D3568B421CD01223D3568B4222D01E2376
:100A4000D3568B4220D02A23D35603208B4210D07A
:100A5000124B1A781970A271BFF35F8F00220B4BF3
:100A60001A608CF31088F8BDB2680D48D050EFE7DB
:100A7000002043001B189B00D218FF239371094BE1
:100A80009380E5E70120F4E70220F2E7240100D09B
:100A900000ED00E08C030020AAAA00001A1200203A
:100AA000CD01001000BDFFFF054B064A1360064A4A
:100AB000136053609360D360136153619361704717
:100AC0008080808000E400E004E400E0D02300B5F2
:100AD0001B061B680100074883B0C018064B0022A4
:100AE00000930523FFF7CCFC002801DB1F23181A15
:100AF00003B000BD14120020E4510010024B9C46CC
:100B000061448900016070474000003483680B48ED
:100B100010B5844661446244090112019A185918BB
:100B200054684B6801209C4201D802D00020C0B21A
:100B300010BD12680B689A42F9D8F7E7FFFFFF0F64
:100B40000A4B1968EFF3108072B60A68002AFCD0CD
:100B5000BFF35F8F1B68BFF35F8F00221A6080F3C3
:100B6000108840BF002000217047C046E4110020DB
:100B7000F8B557464E464546DE46E0B599460CABBD
:100B80001C780DAB1B78060090469A460768002C2F
:100B900011D1BC7B002C42D065003B682D19033D70
:100BA00059194B78BB73002B00D1FB7300238B705A
:100BB0004B700B7004E065003B682D19033D59191B
:100BC000B2682A4B94464246E3181B0163441A60FC
:100BD0004A465A600A9A9A600B9ADA6000238B7030
:100BE0004B700B707B7B9B46002B2BD02200594611
:100BF000B8687B6898473A68002816D05B46584624
:100C00005B005B445519033BA870D118D35C002BE3
:100C100000D06B705B460C707B73A34513D0F0BCA7
:100C2000BB46B246A946A046F8BD5B465B005B44A6
:100C3000033BD3189C705119525D002A00D05A70A2
:100C40005B460B707C7342464B46307D00F026FCC1
:100C5000051E06D05346002B03D12100306800F05A
:100C60003FFE0E9B002BDAD01D70D8E7FFFFFF0F71
:100C7000F0B5DE464E46574645460023E0B58DB0FA
:100C80000A936B4B8200D3580B90994600239B46E6
:100C90004B46079300F0A2FB079C06000F0062681A
:100CA000EFF3108572B61368002BFCD02200079476
:100CB000BFF35F8F2468637B9946002B67D09268EF
:100CC0005C4B90464B441B01984443461A685B6852
:100CD00010001900801BB94100295FDD0B9800F05E
:100CE000DDFB00230026984600279A46079C636890
:100CF000BFF35F8F5A461A6085F310885346002B66
:100D000008D10028C6D10DB0F0BCBB46B246A946FA
:100D1000A046F0BD0A9B414618024B461843D047F7
:100D2000089009916268EFF3108572B61368002B82
:100D3000FCD00794BFF35F8F0899099A002A48DB1B
:100D4000114303D0079B1B69002B5DD1079B1B68D8
:100D5000D97B002907D04A00521819688C464946A9
:100D60006244033A51704A46DA734B46079A013B94
:100D7000D168CA5C0132CA545B46079A1361536852
:100D8000BFF35F8F5A461A6085F3108882E700230D
:100D90000026984600279A460020A7E7002901D19F
:100DA00000289BD10021200000F01CFD43461E6856
:100DB0005F689B68079A9A464346DB689846D36803
:100DC0004B44013B1B780A931B0203431361002031
:100DD0008CE72369002BB9D033003C005B1A9441A7
:100DE0001A002300A74219D89F421BD059460491EC
:100DF00001210391494602914146019151460798CC
:100E00000091FFF7B5FEB7E700F0E8FA089A099BF2
:100E100006000F0092197B419942E5D90122524206
:100E2000D317E3E79642E1D901225242D317DDE717
:100E3000C8110020FFFFFF0FF8B557464E46454644
:100E4000DE46E0B5404D81468A466A68EFF3108879
:100E500072B61368002BFCD0BFF35F8F2E68B47B93
:100E6000002C39D0670033683F19033FDB195A78EB
:100E7000B273002A00D1F273A968344A8C464946FD
:100E8000A2181201624411605146516030499160CC
:100E90000021D160997059701970737B9B46002BAB
:100EA00035D022001900B06873689847326800286E
:100EB00020D05B4658465B005B44D719033BB870B3
:100EC000D118D35C002B00D07B705B460C70737321
:100ED0005C451DD0002626E06B68BFF35F8F1C6069
:100EE00088F3108801204042F0BCBB46B246A946B8
:100EF000A046F8BD5B465B005B44033BD3189C7087
:100F0000D119D25D002A00D05A705B460B70747301
:100F10004A465346287D00F0C1FA061EDAD0210069
:100F2000286800F0DDFCEB681B19013B19786B6841
:100F3000BFF35F8F00221A6088F310880020002E14
:100F4000D2D108022043CFE7D4030020FFFFFF0FD8
:100F5000410B001010B5124C6368002B04D00A211D
:100F60001048FFF7CBFD10BD23000F4A1021206869
:100F700000F056FB032000F025FA032000F0FEFAF3
:100F800003200A4900F044FAFFF7DEFA084B9C46BA
:100F9000032360442375074B80006060DC60DEE75C
:100FA000D4030020E41100200D0B0010710C001080
:100FB00040000034C811002000487047D4030020CE
:100FC000F0B557464E464546DE46E0B585B001933E
:100FD00010AB1B780600039300239A4698460092B4
:100FE0007268EFF3108972B61368002BFCD0BFF360
:100FF0005F8F3568AC7B002C49D067002B683F19A8
:10100000033FDB195A78AA73002A00D1EA73B1684A
:101010004F4A8C4600980199A21812016244106050
:1010200051600E9991600F99D16042469A705A7042
:101030001A706B7B9B46002B45D022001900A868D4
:101040006B6898472A68002830D05B4658465B009A
:101050005B44D719033BB870D118D35C002B00D088
:101060007B705B460C706B735C452DD0F3681B196D
:10107000013B18787368BFF35F8F42461A6089F3AB
:1010800010885346002B2CD10002204307E07368E0
:10109000BFF35F8F1C6089F310880120404205B0C8
:1010A000F0BCBB46B246A946A046F0BD5B465B001D
:1010B0005B44033BD3189C70D119D25D002A00D049
:1010C0005A705B460B706C73307D009A019B00F088
:1010D000E5F982460028C9D02100306800F000FC04
:1010E000C4E7039B002B30D00E9B00200F9998473C
:1010F000030004000D000B4327D000290DDA0098EF
:10110000019902000B00121BAB41994213D818D071
:1011100000920193039B9A4662E700F05FF9020098
:101120000B00A4185D4100940195A94203D8F1D1A8
:1011300000998A42EED901235B42DC1700930194A7
:10114000E8E700999142E3D9F5E70020A7E7C04618
:10115000FFFFFF0FF0B504000D0006267642F717DB
:10116000C64636196F4100B58F4213D810D000F033
:1011700035F932003B00121A8B41002B14DC002B96
:1011800037D02900200000F033F980BCB846F0BD0C
:101190008642ECD90026002700F020F932003B00FF
:1011A000121A8B41002BEADD30003900FFF744FEB4
:1011B0000028E6DB00239846BC460F4A0F4F7B6AA7
:1011C0009C4504D8B96A8E42DBD99C45D9D11168B7
:1011D000EFF3108072B60B68002BFCD0BFF35F8F6B
:1011E0001368BFF35F8F4146196080F3108820BFFA
:1011F000E5E7002AC5D0D7E7E4110020004005400C
:1012000070B5060000F0EAF8FA2204000D00002391
:1012100030000021920000F069FF001969418D4201
:1012200005D802D0FFF796FF70BD8442FAD901209D
:101230004042C117F6E7C046F8B5CE46474680B5EE
:1012400006000C00FFF7F8FD00280CDC2D4B0020F9
:10125000596A8C4203D89B6A0130B34245D3C0BC63
:10126000B946B046F8BD20BF274D6A68EFF3108736
:1012700072B61368002BFCD0BFF35F8F2B68C1B22E
:101280009C465B7B8B4235D0FF2303405A0091463E
:1012900062461268994490464A464244033A92781C
:1012A000002A1DD0EA68000A90464344013B1B789F
:1012B000C0B2834221D06B68BFF35F8F00221A60F7
:1012C00087F310880F4A0020536A9C42C7D8926A5D
:1012D0000130B242C3D2E01A421E9041C0B2BEE712
:1012E0002B699842E7D12A61E5E7601A431E9841CD
:1012F000C0B2B4E7FF230340D4E7604600F0F0FA41
:10130000D9E7C04600400540D4030020F0B5D646DA
:101310004F464646C0B5EFF305833F221340180001
:101320001038EFF3108C72B6204D2A68002AFCD0DA
:10133000BFF35F8F0122110081401D4C884661631D
:101340001C4917000E788A463100C1400F400A42FE
:1013500009D1BFF35F8F2F608CF31088E0BCBA46D1
:10136000B146A846F0BD14498200646A51588C42C7
:101370000FD3124BD25843469E4353461E70BFF3C1
:101380005F8F00232B608CF31088002AE6D09047F3
:10139000E4E70B4A9B00904643441A681A60BFF387
:1013A0005F8F00232B608CF31088D7E7280100D0D3
:1013B000004005401D120020F0110020100C0020FC
:1013C000D03F054010B50100024A0348FFF736F848
:1013D00010BDC0460052001019120020034B596A7C
:1013E0000A00986A596A8A42FAD17047004005405B
:1013F000064A536A9942FCD807D1044B02E05A6A64
:10140000914202D19A6A8242F9D370470040054066
:1014100070B504000D00EFF3108672B61A4A136817
:10142000002BFCD0BFF35F8F002D1BD02000FFF7F7
:10143000E3F8164981420AD02000FFF7E5F80121C0
:101440002000FFF79DF80123A340114A1360114BC0
:10145000A400E550BFF35F8F00220B4B1A6086F3A8
:10146000108870BD0B4BA200D5500122A2400A4942
:1014700020000B7893430B700449FFF7E1F900213A
:101480002000FFF77DF8E5E7280100D00D130010DC
:1014900038600540100C00201D120020F0B54F46AA
:1014A000D6464646C0B507002F4C616A0D00A66AB5
:1014B000616AA942FAD18B4208D805D00120E0BC6C
:1014C000BA46B146A846F0BDB242F7D9EFF3108A4A
:1014D00072B6264801680029FCD0BFF35F8F012552
:1014E000BD402349204C8846097889462943C9B222
:1014F0008C46414660460870391D1E488900656368
:101500000A51B9000B50216A0020294219D0616AA2
:101510000800A66A616A8142FAD18B4219D801D1CA
:10152000B24216D8CC451DD00F4B1F201D625D6303
:1015300001230740BB40104A1E38136043464A4609
:101540001A70BFF35F8F0022084B1A608AF310886D
:10155000B5E70020BFF35F8F0022044B1A608AF3C7
:101560001088ACE70120ECE700400540280100D0DE
:101570001D120020F011002080E200E0EFF3108C3B
:1015800072B60A490B68002BFCD0BFF35F8F0123B2
:101590008340074A0748136202789A430270BFF3F8
:1015A0005F8F00230B608CF310887047280100D0F8
:1015B000004005401D12002070B505001400160003
:1015C000002915D00C00002A12D080686B6898475B
:1015D000296800280ED073009B196200033B121982
:1015E000CB18033A9C7088188A5C002A15D10670C3
:1015F000200070BD63001B197200033B9219CB18C9
:10160000033A9E7088188A5C002A02D10470340064
:10161000EEE75A7004703400EAE75A700670E7E7A4
:1016200030B583600023CCB243730133047342604E
:101630008373C4730D000068012C06D9421C01336A
:10164000DBB2137003329C42F9D1FF2129404B00D9
:101650005918002340180338437030BDF8B5CE4602
:10166000474606000C0080B5002907D04D000368EE
:101670006D18033D5A195778002F04D12000C0BCC3
:10168000B946B046F8BD7900C919033988464344C4
:101690005978894600215970517073683A002100C9
:1016A000806898473368002814D042469A1894708E
:1016B00059195B5D002B00D053700F70270049460D
:1016C0003000FFF7CBFF390002003000FFF774FF56
:1016D0000400D3E7424641465D19AF709A185B5C3F
:1016E000002B00D06B701470E9E7C046F0B5574688
:1016F0004546DE464E46E0B50D006B0001685B19BD
:10170000DF1E0400C85D83B00192CA1900284CD0C6
:1017100043001B18033BCB185E78B446002E16D14D
:10172000019E002E3ED0E67B002E04D073009B1954
:10173000CB18033B5D70E57300282FD10023537055
:1017400003B0F0BCBB46B246A946A046F0BD72004D
:101750006244033A89184A78904600224A709146BA
:101760005A70010032002000FFF726FF43468246F0
:10177000002B07D05B0021684344033BCB185A7809
:10178000002A16D1424651462000FFF715FF216876
:10179000019BCA19002BC6D10028CFD043001B18CB
:1017A000033BCB1800219970C8E7019B002BBAD1ED
:1017B000C4E7500080180338091848788346484623
:1017C0004870587041462000FFF7F6FE59468046A3
:1017D0002000FFF743FF414602002000FFF7ECFE28
:1017E0008046CFE7F0B557464546DE464E46E0B563
:1017F00083B00191457B04006B0000685B19DF1E1C
:10180000C15DC21900294ED04B005B18033BC318C1
:101810005E78B446002E18D1019E002E40D0E67BA3
:10182000002E04D073009B19C318033B5D70E57351
:10183000002931D1002328005370617303B0F0BC3C
:10184000BB46B246A946A046F0BD72006244033AC8
:101850008018427890460022427091465A702000CB
:101860003200FFF7A9FE43468246002B07D05B00FB
:1018700021684344033BCB185A78002A17D14246CB
:1018800051462000FFF798FE019B01002068C21915
:10189000002BC4D10029CDD04B005B18033BC318EB
:1018A00000209870C6E7019B002BB8D1C2E750001A
:1018B000801803380918487883464846487058709D
:1018C00041462000FFF778FE594680462000FFF78A
:1018D000C5FE414602002000FFF76EFE8046CEE7BF
:1018E00070B5040000292CD0437B8B422ED00568B4
:1018F00048004018033828188278002A21D0530065
:101900009B18033BEA5CEE188A4202D11BE0002AD6
:1019100008D053009B18033BEB185A788A42F6D143
:1019200042785A7000230122837043702000FFF731
:10193000DDFE617B02002000FFF73EFE60730120A8
:1019400000E0002070BD43783370EBE701221900FE
:10195000FFF7CCFE60730120F4E7C04610B5040029
:10196000FEF7F2FD01002000FFF7C8F8FF23237106
:10197000BFF35F8F10BDC04610B50400FEF7E4FD55
:1019800001002000FFF7BAF8FF23A380BFF35F8FA9
:1019900010BDC04610B504000120FEF7E1FD044B68
:1019A0009C46604480002060BFF35F8F10BDC0463E
:1019B000400000342C4B2D4A70B51A602C4A2D4B38
:1019C0002D491A6014008B689C43FBD12B4D2C4E83
:1019D000B54208D2013E761BB60808CD98472300D1
:1019E0000134B342F9D100F07DF8264A214B1A6048
:1019F000214A9368DB43DB01DD09002BF9D140224A
:101A0000214B224C224E9A675A671A67DA66B44213
:101A100008D223682000002B20D00834FFF7ACFF49
:101A2000B442F6D31B4E1C4CC022A168300000F01B
:101A3000CDFBA660FEF77AFDFFF736F8FFF78AFACE
:101A4000164C174EB44208D2013E361BB60808CCDD
:101A500098472B0001359E42F9D170BD0834FFF73D
:101A60007DFFB442D5D3DDE700E00040BFCDFBFEF3
:101A7000FE7F3C0000F0004000C0004080040020D9
:101A800090040020FFFFFF0100F0014070040020DF
:101A9000800400200000002000ED00E09004002001
:101AA0009804002000BEFDE70FB400B5084883B0DD
:101AB00000F0C2FC049B002B07D005A9180001917F
:101AC00000F03CFA034800F0B7FC00BEFDE7C0465A
:101AD000245200103452001010B50148FFF7E4FF03
:101AE0003852001030B50C2083B000F0B7F9FEF783
:101AF00015FD00280ED0944B944A1A605A609A60E3
:101B0000DA601A615A619A61DA611A62904A5A621D
:101B100003B030BD8F4CA06700F0F4F901228E4B6A
:101B20001A60636C012BFCD103228C4B1A60894A2A
:101B3000936B012BFCD101330121894A8948009321
:101B4000043300F033F90523874A009301218748C5
:101B500000F02CF9864B5A68FF2A02D880225200E6
:101B60005A608022784C7D4B21691201804D1A60A9
:101B7000002905D0606900F033FA01300138FDD149
:101B8000E0217B4B02201A681140802252012A4337
:101B900011601968484003210140116004219A68CE
:101BA0001142FCD08022802192012A430901116058
:101BB000802252005A606F4B23616F4B5968FF2996
:101BC00000D85A600321644A6B4B116002399A684D
:101BD0001142FCD0E0201A681040802252011A43C2
:101BE00010601868484003210140022011606249DA
:101BF0008A681042FCD08022920113438022120195
:101C00001A6080225D4B52004A6063615C4B5968E8
:101C1000FF2900D85A6080225A4BE1691201584DC1
:101C20001A60002905D0606900F0DAF90130013846
:101C3000FDD1E02252490B681A4080235B012B43FF
:101C40001A60802380229B012B4312011A6080229C
:101C50003E4B52004A60E3614B4B5968FF2900D864
:101C60005A608022494B216A1201474D1A600029AF
:101C700005D0606900F0B4F901300138FDD1E022EF
:101C800041490B681A4080235B012B431A60802373
:101C900080229B012B4312011A60802380225B006B
:101CA0004B602A4BD2022362394B5968914200D2D1
:101CB0005A608022374B616A1201354D1A60002943
:101CC00005D0606900F08CF901300138FDD1E022C7
:101CD0002F490B681A4080235B012B431A60802335
:101CE00080229B012B4312011A608023DB024B6090
:101CF000174B6362284B5A68FF2A02D88022520091
:101D00005A608022254BA1691201234D1A600029D7
:101D100005D0606900F064F901300138FDD1E0229E
:101D20001D490B681A4080235B012B431A608023F6
:101D300080229B012B4312011A6080235B004B60C1
:101D40000E4BA361E4E6C046240D0020006CDC02CB
:101D50001BB70000008000403CB0004030B00040A5
:101D6000002F685900800240008C864700C0024066
:101D700030800040001BB7003C8000404059730792
:101D80005480004054B000406080004060B000408B
:101D90006C8000406CB000404880004048B000407B
:101DA000014B8000C0587047240D0020F0B5C64696
:101DB000040000B50C2090461F000E0000F010F942
:101DC0004101091A8D01691AC900091889014046A3
:101DD00000F006F9069B3F041A0323681743002B03
:101DE00022DB1A4B1A4DE21853425A4180235B0101
:101DF0009C461203174B62441A60174B1A6011007D
:101E0000AB689943FBD1C022231D92011A432123C1
:101E10002660A06013602368002BFCDA0823E760CB
:101E2000136080BCB846F0BD3F2322681340B34224
:101E3000D7D1A3681B051B0D8342D2D1EE22E368E4
:101E4000D2021340BB42CCD1EBE7C0460040FDBFFD
:101E500000C0004000E0004000F000408023024A43
:101E60009B000343D36270470080054010B5140007
:101E700080221B4BD2051A6000281AD00123194A70
:101E80001843194BDA61194A42401A625962986242
:101E90008022134BD2051A601549164A1160E022C0
:101EA000D2041A60002C07D18022134B12061A604C
:101EB00010BD0D4BD861EBE763011B1B9A0080231B
:101EC000121912015B049A4200D30C4A0C4B1A609F
:101ED000054B5A608022084BD2051A60E8E7C046DD
:101EE00000B00540D3C007B0008005402D3FF84F3B
:101EF000FCFF01000820014000A00540FFFFFF009B
:101F0000C0110020AA23064A1B0113602F23054994
:101F1000D360054B19605368002BFCDA7047C0464C
:101F20000040024000B0FA000060024010B50028F6
:101F300000D110BD00F030FAFBE7C04610B5094AE9
:101F40000300146884B0002C08D0012200910648D8
:101F5000524203A9A047012004B010BD00F06CFA62
:101F60000020F9E7BC1100202D1F001001480421BA
:101F7000014B1847000400209D1F0010142310B5CA
:101F80000100188804331B88984710BD162310B52C
:101F90000100188802331B88984710BDF8B54746E2
:101FA000CE4680B50F1E19D0142399460433040081
:101FB0000025012698464B461888434621681B8811
:101FC000984701C4431E9841013540420640AF4244
:101FD000F1D13000C0BCB946B046F8BD0126F8E7E3
:101FE000114A936F9B0813D210665166002905D0E1
:101FF000FFE7FFE7FFE7516F106F704704B5002858
:1020000001D00020C04303F0BFF8002104BDC0464A
:10201000F0B5146E556E576F166FFFF7E5FF146637
:10202000556657671667F0BD000000D0132370B5E2
:102030001D78012D15D010DD1C48FFF7A7FF1C4CA3
:1020400001008022200000F0C1F8022D06D01948BE
:10205000FFF794FF184B186070BD154C174BA36425
:10206000F5E7164B124C23606360A360E3602361C5
:102070006361A361E36123626362A362E36223633A
:102080006363A363E36323646364A364E36423651A
:102090006365A365E36523666366A366E3662367FA
:1020A0006367A367E367A364D1E7C04653440000B6
:1020B000A00500204C330000E0110020C1200010DA
:1020C00007B5604601880A0A0230DF2AFAD1C9B290
:1020D000820804D3028840880004104300E00068AE
:1020E000014A5050039007BDA005002051434343CF
:1020F000C9188C46110C83B24B4310B4040C6143D5
:1021000092B280B2504362431C041B0C001910BCF5
:1021100059411304120CC01851416144704700002A
:10212000132310B512481C78FFF730FF0100012C73
:102130000AD003DD80220F4800F048F80E48FFF770
:102140001DFF0E4B186010BD0A4C5422200000F0F9
:102150003DF80B4B6365A365E36523666366A36681
:10216000E36623676367A367E3672362E361E5E7E9
:1021700053460000A00600204C330000E011002070
:102180008521001007B5604601880A0A0230DF2A5F
:10219000FAD1C9B2820804D30288408800041043EF
:1021A00000E00068014A5050039007BDA0060020DF
:1021B00001480421014B1847100400209D1F001006
:1021C000014B1B681847000010040020014B5B689E
:1021D0001847000010040020030010B5080011008B
:1021E0001B68984710BDC046F0B546464F46D646D8
:1021F000C0B5437C80460E001700002B46D0002A55
:102200003FDD4B1E9946244B0125002400209A46B1
:102210000DE04B461B5D0D3B5A425341325DDBB234
:102220000A2A0BD02B00013401359F421ADD002C05
:10223000EFD14346325D1B7C0A2AF3D1002BF1D14A
:10224000A04204DA4346211A1B68301898474346D7
:1022500050461B6802219847013428002B000135A5
:102260009F42E4DC874204DD4346391A1B6830187C
:102270009847F619013E33780D3B5A425341424686
:102280001374E0BCBA46B146A846F0BD036811001D
:1022900030009847F5E7C046A0520010F0B5574609
:1022A0004E464546DE461C00D023E0B51B061F689F
:1022B000344B83B006000D00180001A991469A46E0
:1022C00002F06AFF8046002808D1019B7FB29F423E
:1022D00004D0504602F070FF012398466B1C03D1D6
:1022E000300002F011FF0500002C27D1264F274BAC
:1022F0001C68002C18D04B46002B21D1244B99464A
:1023000002E0E468002C0FD02368002BF9D04B4684
:102310001B68002B01D0A342F3D120002A0031001A
:10232000B847E468002CEFD14346002B25D103B019
:10233000F0BCBB46B246A946A046F0BD154FD6E755
:10234000134B99460A239B4602E0E468002CEBD02D
:102350002368002BF9D04B461B68002B01D0A34209
:10236000F3D12A0031002000B8475A466B462000BE
:102370001A7101A90122B847E7E7504602F0FCFEB6
:10238000D5E7C04678040020E9210010B40D0020F4
:10239000B80D0020D9210010F0B5CE46474680B5D3
:1023A00083B06B46DE1CD02330701B061C681F4BAD
:1023B000804601A91800994602F0EEFE071E20D0C3
:1023C0001B4B1C68002C28D01A4D02E0E468002C3E
:1023D0000FD02368002BF9D02B68002B01D0A3422B
:1023E000F4D1200001223100FFF7FEFEE468002C4A
:1023F000EFD1002F11D1404603B0C0BCB946B04662
:10240000F0BD019B64B29C420BD0484602F0D4FE62
:10241000074B01271C68002CD6D1484602F0ACFEC1
:10242000E9E7034B1C68002CCED1E4E778040020D8
:10243000B40D0020B80D002070B5040002F064FE59
:1024400000230100050001222000FFF727FF084BB1
:102450001C68002C06D06368002B05D09847E46800
:10246000002CF8D1280070BDE468002CF3D1F9E706
:10247000B40D00200A4A1368002B05D10CE01A00A5
:10248000DB680C32002B07D09842F8D1002902D12A
:10249000C3681360C16070470029FCD01060FAE780
:1024A000B40D002010B500F03DF910BD7047C046D6
:1024B0000022014B1A7070471B1200204B7900203C
:1024C000FF2B0BD18B79002B08D1CB79012B05D1B8
:1024D000082A03D98A78024B09301A707047C0461F
:1024E0001B1200200120704770B5002915D1154935
:1024F0005379107909781B0203430020994200D0D8
:1025000070BD5378012B0AD0022BF9D10020642230
:102510000021FFF7ABFC0120F2E70120F0E79478FF
:10252000D278050012021443D20502D5620A934004
:102530001D000548FFF722FD7F21030021402800F0
:102540009847C0461B12002055420000012303702B
:1025500000487047A452001048780B788A7800022F
:102560001843120410439622CB7810B51B06034380
:10257000D200934200D010BD0348FFF7FFFC0021BA
:10258000030008009847C0465542000070B5184C3B
:1025900082B006000D00200001A902F0FDFD002818
:1025A00008D1D0231B061B68019A9A421CD0200038
:1025B00002F002FE002001F01FFE002807D10325D3
:1025C0006D42200002F0D8FD280002B070BD00204E
:1025D00001F02AFE0028F2D02A003100002001F08C
:1025E0002FFE051EEBD0ECE703256D42ECE7C0465D
:1025F000E8110020F0B5DE464F464646C0B5334BE5
:1026000082B081460D00180001A99B4602F0C4FD6E
:10261000002808D1D0231B061B68019A9A424FD08C
:10262000584602F0C9FD002001F0E6FD00283FD029
:102630000024002D41DD264E11E04B4600201919E3
:1026400001F072FE804600F065FE002001F030FED1
:10265000FEF7C4FE306071604444AC422DDA0020C5
:1026600001F07CFE2F1B0200B84200DD3A00002A78
:10267000E3D100F04FFE002001F01AFE002001F02F
:10268000BBFD002819D0002001F068FE0028E4D12D
:10269000FEF7A4FE326873680F00002184460D48DF
:1026A00012184B419F4208D8D7D19445D5D904E0A0
:1026B00000200021064B18605960584602F05CFD6E
:1026C00002B0E0BCBB46B146A846F0BDE811002010
:1026D0009805002020A1070010B5044B1878FDF7DD
:1026E0006DFFFA200021800010BDC0461C120020A2
:1026F00010B5024B1878FDF761FF10BD1C120020C9
:1027000010B5074C0021200002F046FD002800D142
:1027100010BD00F0FFFD200002F02EFDF8E7C046DE
:10272000E8110020F0B5244B85B01B7801F0FEFFC6
:102730002248FFF713F90120FEF7C8F9FF23204CC8
:10274000204920701840FDF75FFF20780121FDF738
:1027500017FF0520FDF73AFF041E0CD000220520CC
:102760001949FDF77BFF01211848FFF783FE01247B
:10277000200005B0F0BDFEF71FFC0500FEF72EFEA1
:10278000FA2206000F000023920092197B41994221
:102790000ED80BD001210291002101910C49280093
:1027A0000091FEF70DFC0028E2D0DCE79042F1D961
:1027B00001225242D317EDE7B0540010E811002077
:1027C0001C12002001270010F12600102004002018
:1027D000D9260010004870475C530010004870472D
:1027E0000853001070B5040017480378002B21D05F
:1027F000002C06D1C1241548154BA4004380048049
:1028000070BD052C1DD8134B1048A400E558811C41
:10281000002304E001330A800231132B0ED0EA5C5E
:10282000DCB2002AF6D1C0230134E4B264009B007C
:102830001C43E4E7112102F00FFAD9E7CA24A400EF
:10284000DDE70020DCE7C046001200208C0D0020F0
:102850000904000070530010F0B598235746454610
:10286000DE464E466C4AE0B5D75880253C006D02E6
:10287000883B9A4683B02C402F420FD0012223215F
:10288000664B00205A54DA70654901F073FA8022D1
:10289000644B92021A65644B2C009A46FB0617D4CF
:1028A00080235B011F4245D18023DB011F4200D002
:1028B00088E080231B021F4200D091E0BC4200D080
:1028C000A5E003B0F0BCBB46B246A946A046F0BDA9
:1028D000514B9B6D9846002B27D0524B00249B46B2
:1028E0000123994643460126B8461F0004E00134FF
:1028F0007600E4B2202C17D03742F8D05B469E65B4
:102900004B466508A3436D00ED18444B6D019C4692
:102910006544280000F08AFB00286CD10134B743DD
:10292000E4B27600002FE5D1474680235B01544690
:102930001F42B9D01C430023374A00211360384A94
:102940003A489360D3603A4A9360D360394A9360BF
:10295000D360394A9360D360384A9360D360384A71
:102960009360D360374A9360D360374A9360D360F3
:10297000364A9360D360364A9360D360354A936099
:10298000D360354A9360D360344A9360D360344A4D
:102990009360D360334A9360D360F0229200FFF7D4
:1029A0000FFC314B314A00211A600020012201F056
:1029B000B7F980221B4B12031A658023DB011F42EB
:1029C00000D176E70122042100201C4301F018F910
:1029D0001022144B1A6580231B021F4200D16DE7A1
:1029E0000122052100201C4301F00AF980220D4B31
:1029F00012011A6562E74B46AA8AA9780020009363
:102A0000002301F0DFF9280000F04CFA86E72100EE
:102A100017487940FFF748F800001150BC0D00201E
:102A2000000010500030115010000100FC0D00207B
:102A300008001050100010501800105020001050C6
:102A40002800105030001050380010504000105036
:102A500048001050500010505800105060001050A6
:102A60006800105070001050C411002080011050F8
:102A70008853001010B501210520FDF781FD10BD20
:102A800010B500220021024800F034FA10BDC04603
:102A9000DC0D00208022024B5202DA647047C046EF
:102AA00000201150F0B5C64600B5060000F0D4F97C
:102AB0000C23354D0520AB673449FDF7A5FD4023B8
:102AC0009846334C402200212000FFF779FB434613
:102AD0000127A383212100232E4A6770A26013607F
:102AE00063545F3161844146A187023963542A4AA5
:102AF0002A496360E260A1620B60E262284A636275
:102B00009360D360274A20009360D360264A002157
:102B10009360D360254A40309360D360244A936029
:102B2000D360244A9360D360234A9360D360234ADE
:102B30009360D360224A9360D360224A9360D3604B
:102B4000214A9360D360214A9360D360204A936006
:102B5000D360204A9360D3601F4A9360D360F02211
:102B60009200FFF72DFB1D4B1D4A30001A60802399
:102B70009B052F64EB6490231A4AEA50FFF78AFF03
:102B800080BCB846F0BDC046000011505928001066
:102B9000BC0D002084001050000110508000105027
:102BA0000000105008001050100010501800105075
:102BB00020001050280010503000105038001050E5
:102BC0004000105048001050500010505800105055
:102BD000600010506800105070001050C4110020A8
:102BE0008001105010D001000B785B0602D14B78A9
:102BF000052B00D070478A78014B1A60FAE7C0466F
:102C000000001150F0B5CE464746072380B54879FD
:102C10008E780A790340C8787F21800731401B02F3
:102C2000F40913434F00820F944691462A4D3A19F6
:102C30005201AA189670012666405670604600261A
:102C40009383D6709077CA00012C29D023488446FC
:102C5000880162448446AC44604682601660002964
:102C600029D01F4AC9009046414441603F223F336A
:102C700093434A46022A00D15B001A493F190A6869
:102C80007F01D3180B60184BED195340EA604A4698
:102C90009006184380231B0618436B68186010E0E9
:102CA00012488446880162448446AC44604682628D
:102CB000166000290AD1002364012D196B600C4BAA
:102CC000EB600120C0BCB946B046F0BD064AC90061
:102CD000904641444162C9E7BC0D00208400105079
:102CE00004001050C411002000001050800010504B
:102CF0000001105000231C4A10B59360D3601B4A9A
:102D000000219360D3601A4A1A489360D3601A4A2C
:102D10009360D360194A9360D360194A9360D3607B
:102D2000184A9360D360184A9360D360174A93603F
:102D3000D360174A9360D360164A9360D360164AF3
:102D40009360D360154A9360D360154A9360D36053
:102D5000144A9360D360F0229200FFF731FA124BCD
:102D6000124A1A6010BDC0460000105008001050F2
:102D700010001050FC0D00201800105020001050C2
:102D800028001050300010503800105040001050F3
:102D90004800105050001050580010506000105063
:102DA0006800105070001050C411002080011050B5
:102DB00010B57F200C0020404000E40911000019EC
:102DC0001A00034B4001C01800F094F8012010BD18
:102DD000BC0D00207F22130010B50B400A420BD01F
:102DE000C9098022580040180649400140181201C4
:102DF000002100F05DF810BD02220348C909521AF3
:102E00008266EEE7BC0D0020002011507F221000EA
:102E100010B508400A4200D110BD0023C909400086
:102E2000401804494001081800220349C37000F00B
:102E30003FF8F1E7BC0D0020FFF7FFFF7F21C3093A
:102E4000034A9B00014010B59A580248FEF72CFE39
:102E5000340400209C53001080220D4B520410B506
:102E60001A600C4B0C491A6010008B689843FBD118
:102E70000A4C9C2200212000FFF7A2F980220021A9
:102E800052010748FFF79CF90923636710BDC0464C
:102E900000E0004000F0004000C000400000115081
:102EA00000001050002303744382838283617047C3
:102EB00010B58368002901D01C682140002A11D078
:102EC0008024E400114322420CD01A6822420BD124
:102ED000074A0A401A60FFE7FFE7FFE7FFE7FFE75F
:102EE000FFE78368196010BD8078FFF7A7FFC04631
:102EF000FFFBFFFFF0B5C646002300B58382013318
:102F00000374436804001E68838B81611F1C934215
:102F100000D9171C8025BFB2D21B93B2E278ED0016
:102F200063823D43002A02D09025AD013D4301203C
:102F30004240E2706278002A51D0002B1DD1A023BC
:102F4000DB011D43354B1B6C354B33408026B605EA
:102F50001E436368A2681E6013685B055AD4314B38
:102F60002B401360FFE7FFE7FFE7FFE7FFE7FFE71F
:102F7000A3681D6080BCB846F0BD80225201154395
:102F8000264A126C920703D4A278D209012ADBD117
:102F9000A28B111C9A4200D9191C80278AB2FF000B
:102FA0009B1A90461743E2789BB26382002A03D0B3
:102FB00090274146BF010F4301214A40E2706278E9
:102FC000002A19D0002B02D18023DB011F43164BAE
:102FD0003F043340A026F6053D431E43B9E73A00BF
:102FE000E068FFF7F3F8A3699C46802367441B025F
:102FF0001D43A761638AA0E7E0684246A1694030AB
:10300000FFF7E4F8A3694344A36180231B021F4335
:10301000638AD7E7A078FFF711FFC0460000115080
:10302000FFFFFFAFFFFBFFFFFFFFFFDFF0B5C6466F
:1030300000B5067C0400002E00D1D3E083681A6836
:103040001D684378AD05AD0D002B51D1838AEB1877
:103050009BB28382A18B8D4207D200236382636877
:103060001B68300080BCB846F0BD62681268520030
:1030700002D58D4200D175E0638A002BF1D06268E1
:103080001F1C16688B4200D90F1C8025BFB2DB1BAA
:10309000E2789BB2ED0063823D43002A02D0902586
:1030A000AD013D4301214A40E2706278002A68D0B8
:1030B000002B2AD1A023DB011D434F4B1B6C4F4B30
:1030C00033408026B6051E436368A2681E601368FD
:1030D0005B0500D58DE04A4B2B401360FFE7FFE70F
:1030E000FFE7FFE7FFE7FFE7A36800261D60B8E7FB
:1030F0002A00C1688069FFF769F8A38AA269EB1802
:103100009BB25219A382A261A4E780225201154307
:10311000394A126C920703D4A278D209012ACED17F
:10312000A28B111C9A423FD880278AB2FF009B1ABB
:1031300090461743E2789BB26382002A2FD1012187
:103140004A40E2706278002A3ED0002B02D18023F0
:10315000DB011F432B4B3F043340A026F6053D43C4
:103160001E43B1E7A26815686278AD01AD0D002A73
:103170001CD1EB18A3828D4200D37DE7002363822C
:103180006FE73A00A169E068FFF720F8A3699C4661
:10319000802367441B021D43A761638A88E7902749
:1031A0004146BF010F43CAE7191CBDE7E1682A0089
:1031B0004031A069FFF70AF8A38AA18BEB18A3821C
:1031C000A3695B19A361D6E7E0684246A169403074
:1031D000FEF7FCFFA3694344A36180231B021F4346
:1031E000638AB2E77F238178074A08481940FEF7CF
:1031F0005BFCA078FFF722FE00001150FFFFFFAF3D
:10320000FFFBFFFFFFFFFFDF34040020BC53001073
:10321000024B5878431E9841C0B27047F40A002010
:10322000024B18784007C00F7047C046F40A0020D0
:10323000014B18787047C04617120020F8B5474672
:10324000CE4680B5294F05003B78002B04D00120E5
:10325000C0BCB946B046F8BD532200212448FEF751
:10326000AFFF244C2000FEF779FB234B1C60234C5E
:1032700020001C30FEF78EFB200001F0A1FC204B4B
:10328000204E1C60204B9846002B04D03000FFF7E6
:103290005DF91E4B1860424600243378002A1DD089
:1032A0001B4A9046194A91469C4210D31BD1434673
:1032B000984701343378E4B2A342F5D22800FFF7EF
:1032C000F1FB2800FFF7D6FB01233B70BFE74A461E
:1032D000630012681B19DB009B58E9E701F04AF80C
:1032E0003378002BEAD000231B68FFDE1712002082
:1032F000F40A0020AC0A0020480B00203C04002007
:103300004C0B0020161200204D250010BC07002099
:1033100075430010F0B5DE4657464E464546E0B5CB
:103320008BB001F009FA002800D144E1C24BC34E32
:103330009B4607AC3568EA69EFF3108172B61368F3
:10334000002BFCD0BFF35F8F29622800210001F021
:10335000ABFAEA692B6ABFF35F8F0021116083F338
:103360001088002800D126E16378082BE2D85A465D
:103370009B00D3589F466368002BDBD0A06898471A
:10338000D8E77F222179AE4B0A405500C8095B1966
:103390001B18180001273030C578BD43C570C578AB
:1033A0000337BD43C570002A00D10BE1A54ADB7C81
:1033B000002A06D0A44A1278934200D291E19B1AC7
:1033C000DBB2002B00D0F6E0A04D62792078A36834
:1033D000A847AFE701229A4F01213B78042013430D
:1033E0003B703323FA5C8A43FA54FA5C8243FA5402
:1033F0000133FA5C8A43FA54FA5C8243FA54237824
:1034000000209A4600F066FE602223791A40602A66
:103410000DD0402A00D1F2E0DB06DB0E012B00D1FB
:103420006AE1022B00D121E1002B00D1F6E02078E7
:103430000021FFF7CFFC80212078FFF7CBFC79E754
:103440007F4B1B78DB0700D474E7814B002B00D146
:1034500070E700E000BF6DE7794B1A78D20700D41F
:1034600068E77C4A002A00D164E718780007C00F9B
:1034700000E000BF5EE7744D724A00272B78002AF7
:1034800000D1B6E0744A90469F4208D39F4200D0D4
:10349000B2E00137FFB29F4200D94BE7F6D2414676
:1034A00009687A008C46D219D20062445269002A17
:1034B000EFD02078904701372B78FFB29F42E3D9B5
:1034C00038E72378604D5F4A984600272B78002A1A
:1034D00000D186E0614A91465F4A92462A004546FD
:1034E0009046BB425ED800D078E04B462800984713
:1034F000434601371B78FFB2BB42F2D2504D5322F4
:1035000000212800FEF75CFE1022FF21E81CFEF7D8
:1035100057FE28002022FF211330FEF751FE00F055
:10352000CFFD4F4B002B00D104E700E000BF01E7C7
:103530002378454D434A984600272B78002A47D0E8
:10354000464A9146444A92462A00454690469F4242
:103550001FD343D14B4628009847434601371B7879
:10356000FFB2BB42F3D2364D532200212800FEF7B2
:1035700027FE1022FF21E81CFEF722FE2800202251
:10358000FF211330FEF71CFE00F09AFD2379AB708B
:10359000D0E6524612687B009446DB19DB00634498
:1035A0005B68D8E7524612687B009446DB19DB0063
:1035B00063445B689AE70BB0F0BCBB46B246A946D1
:1035C000A046F0BD62792078A36800F097FDB1E6CF
:1035D000404600F00DFF2B78002BC4D000235B6821
:1035E000FFDE404600F004FF2B78002B00D185E77A
:1035F000F4E7002B00D19DE600235B69FFDE19484C
:10360000002800D113E700F065FD0021504608AA0C
:1036100000E000BF002800D08CE608E7202A00D197
:103620009FE0002A00D002E76379092B00D9FEE66B
:103630000D4A9B00D3589F46F05300104C0B0020BE
:10364000F40A00204D25001016120020E545001058
:103650000000000000000000BC070020F143001043
:103660000000000000000000145400107023217AB4
:103670000B4200D0DBE60F330B405B00F818CD099E
:103680000093C14B4019C07C002B06D0BF4B1B7868
:10369000984200D288E0C01AC0B200287ED1002A29
:1036A00000D015E1BA4B0193637998460223424654
:1036B00099469A43012A00D10EE14346002B00D0DF
:1036C000B5E6009B06AAFB185D193035EB7802328F
:1036D0009B07DB0F13805046022308A900F092FCE1
:1036E00028E65A00D318AB4ADB001268D318002B27
:1036F00000D160E71D6968E6237A0F2B00D996E6B2
:10370000A14AFB18DB78002A05D0A04A1278934220
:1037100064D39B1ADBB2002B00D088E69E489C4DF8
:1037200000F0D8FC00215046EB6808AA9847002812
:1037300000D0FFE56022150023791D401A4200D019
:1037400075E663790A3B012B00D970E600F0C2FCF4
:1037500063790A2B00D1EEE0504608A900F03AFC4C
:10376000E8E5237A0F2B00D961E6874AFB18DB785E
:10377000002A06D0854A1278934200D2D0E09B1AE4
:10378000DBB2002B00D052E68348814D00F0A2FC52
:1037900000215046EB6808AA98473BE7002A00D072
:1037A00045E6002301937FE743009C46794B604444
:1037B0001B68C0009C46030063440193002A00D1AB
:1037C00072E7002B00D132E6D86800F083FC019B41
:1037D00000215046DB6808AA98471BE76D4A5D0048
:1037E000EB181568DB00ED18002D00D11FE6E86826
:1037F00096E7E388012B00D019E608223B78504673
:10380000934308A93B7000F0E5FB93E5022039786B
:1038100006AB9A1C8B068908DB0F01400B4359E766
:10382000A37901931A007B789A4207D07B78002B0A
:1038300000D01EE1019B002B00D0B3E0019B50465D
:1038400008A97B7000F0C6FB74E57B7806AA0232FB
:1038500013705046012308A900F0D4FB6AE5E08804
:10386000030AC0B20F2B00D9E1E54C499A008A58EF
:10387000974608A800F034FC5046A179FFF700F9FC
:1038800002223B7813433B7054E5E388012B00D0C0
:10389000CDE508223B785046134308A93B7000F061
:1038A00099FB47E5022B00D194E13D4B002B00D161
:1038B000BDE500E000BF0200002A00D1B7E5D378E3
:1038C00091781B020B43504608A900F09BFBA1E630
:1038D0002F4B3148019378E7E288002A09D143460B
:1038E000012B3DD0009BFB185D193035EB789B0711
:1038F0002AD5019D002D00D11CE5EB68180000932E
:1039000000F0E8FBEB68002108AA50469847002029
:1039100000F0E0FB3423FB5CDB0700D50AE51BE786
:103920001C4A5D00EB181568DB00ED18002D00D176
:103930007DE5E8682AE706AB9A1C5046012308A9F2
:10394000157000F05FFBF5E45046FFF743FA0222E2
:10395000EB7813430122EB70EB781343EB70C8E76D
:10396000009BFB185D193035EB789B07C1D550469D
:10397000FFF74CFA4A46EB7893434246EB70EB78FC
:103980009343EB70B5E7C0464D250010161200209A
:103990007C540010BC070020014500103C5400106E
:1039A00000000000581EC0B2FEF718FF002800D12A
:1039B0003DE543780493022B00D038E50121C3791B
:1039C0009A115B110A400B4052011B0113433A78D4
:1039D0002F318A4313433B7009239946C378827879
:1039E0001B021343C31881440393039B4B4500D828
:1039F000E9E04B4601225B7800920B2B07D14B4646
:103A0000DB7800934B461B7899444B465B78042B3C
:103A100000D00CE54A46039B00259B1A9BB20293FB
:103A20006E4A6F4B1B78002A16D162E0AB4271D10F
:103A30006C4A6D4B904649465046029A98478446D8
:103A4000082802D9029A824269D2654B01351B7857
:103A5000EDB2AB4200D2EAE4AB42E7D9634A6B0075
:103A600012685B199046DB009844434605929B68B8
:103A7000E1E75046FFF73EF9BB78594D574A0093AE
:103A800000212B78002A2DD0584A90462A000D009C
:103A900091469D421DD300D0A0E5554B5046984716
:103AA0004B4601351B78EDB2AB42F2D253220021D6
:103AB0003800FEF785FB1022FF21F81CFEF780FB83
:103AC00038002022FF211330FEF77AFB009BBB70E9
:103AD000B0E6424612686B0094465B19DB00634413
:103AE0005B68DBE7504600F083FC2B78002BDDD0D1
:103AF00074E5029B49461A005046984600F08EFC39
:103B00008446082801D9404507D9354B1B78002B3E
:103B100000D18CE400239B68FFDE324B9846009B6B
:103B2000012B48D0009B002B10D04B4699780023E6
:103B300005E0D5700133009ADBB2934206D2CA1871
:103B4000D2B2BA18D078FF28F3D070E43800E0463B
:103B50002B0049466246133000F02EFE204BC14434
:103B60001B78AB4200D340E761E4224B002B00D12D
:103B70005DE400E000BF0200A1E6FEF72BFE122389
:103B8000020008A9504600F03DFA43E51A4B002B0D
:103B900000D14CE400E000BF021E00D147E45046D3
:103BA000137808A900F02EFA34E52189FEF71AFEF1
:103BB000021EF4D13BE442460B4B92689A42B4D1C8
:103BC000049B0093B1E70D4B002B00D136E600E0DB
:103BD00000BF33E6FEF702FE02006DE64D25001041
:103BE000161200207C5400101D440010BC07002059
:103BF000F143001000000000000000000000000081
:103C000030B587B005000C000C2200216846FEF795
:103C1000D7FA6B461D705C70042C4FD009D8022C6B
:103C200034D0032C19D13C4B1A78520758D407B022
:103C300030BD052C11D1384B1A78D207F7D50421A5
:103C40001A788A431A70354B1C68E269EFF31081C9
:103C500072B61368002B09D1FBE7304B1C68E26990
:103C6000EFF3108172B61368002BFCD0BFF35F8FA7
:103C700021626946200000F0E5FEE269236ABFF395
:103C80005F8F0021116083F31088D0E70121224B60
:103C90001A788A431A701A780331A2431A700022E4
:103CA0005A701A788A431A701C4B1C68E269EFF349
:103CB000108172B61368002BD8D1FBE7164B1A7827
:103CC000D207B4D504211A780A431A70134B1C6822
:103CD000E269EFF3108172B61368002BC6D1FBE7DF
:103CE00004211A7803A88A431A7000210C22FEF7D7
:103CF00067FA6B466A461D7305235373074B1C68AE
:103D0000E269EFF3108172B61368002BFCD0BFF3A9
:103D10005F8F216203A9ADE7F40A00204C0B00205D
:103D200070B584B001AC06000D000C22002120000B
:103D3000FEF746FA012363700D4B25711D6826704E
:103D4000EA69EFF3108372B611680029FCD0BFF363
:103D50005F8F2B622100280000F074FEEA692B6A55
:103D6000BFF35F8F0021116083F3108804B070BD32
:103D70004C0B0020002330B585B001AD6B8028705E
:103D80000633082202A86B70FEF720FA0C4B1C6861
:103D9000E269EFF3108372B611680029FCD0BFF31B
:103DA0005F8F23622900200000F04CFEE269236A45
:103DB000BFF35F8F0021116083F3108805B030BD21
:103DC0004C0B0020F0B5C646804600B584B001AC6F
:103DD0000F0016000021082220001D00FEF7F0F958
:103DE00043462370072363700F4B65711D6827716D
:103DF000A660EA69EFF3108372B611680029FCD05F
:103E0000BFF35F8F2B622100280000F01BFEEA69E0
:103E10002B6ABFF35F8F0021116083F3108804B019
:103E200080BCB846F0BDC0464C0B0020F0B54646FD
:103E3000D6464F468046C0B50C0015001E00002A2D
:103E40002ED070239946184B00279A466378052B8D
:103E50000FD1E1788907890FB1420AD14A46A37888
:103E60001A4206D153462000997800F069FC0028D8
:103E700005D10020E0BCBA46B146A846F0BD2100FD
:103E80004046FEF7BFFE0028F3D0A378DA09012AE6
:103E900008D0089A137023780137E418AF42D5DBB5
:103EA0000120E7E7099AF5E7F40A0020702270B5CF
:103EB0008B7805000C001A4201D0002070BD064B23
:103EC0002000997800F03CFC0028F6D02100280062
:103ED000FEF798FEF2E7C046F40A002070B57F2492
:103EE0000C406300144CC909E41864183034E378BA
:103EF000DB07DD0F002B18D1E3785B0701D5280025
:103F000070BD01210D4E4942306801F04DF9E37852
:103F1000DB07DD0F002B0AD1E3785B0708D404220E
:103F2000E37801251343E37002E00025E7E700256D
:103F3000306801F021F9E2E7F40A0020480B002084
:103F400070B50C0001210F4D4942286801F02CF991
:103F50007F2121404B000C49E409C918091930316F
:103F6000CB780024DB0708D4CB785B07DC0F002B71
:103F700003DA0422CB789343CB70286801F0FCF875
:103F8000200070BD480B0020F40A002070B57F258A
:103F90000F4C0D406D0064190600C8092418303418
:103FA000E5780020ED0700D570BD0125E0782843B5
:103FB000E0703000FEF7FCFE0028F5D10122E37826
:103FC0009343E370E37803329343E370ECE7C04636
:103FD000F40A002070B50A4E0500300008220C00DB
:103FE000FEF7F4F800237F21F3602278B36091425A
:103FF0005B412800D90100220023FFF7C7FF70BDF5
:10400000980A0020F8B5CE46474691462A4E80B51C
:104010000822070030000D009846FEF7D7F84B46FF
:10402000B3600023F381EC79A97924020C43231CAB
:10403000444500D943469AB29046B381002C13D030
:10404000002A1FD04B46002B34D0131C402A1FD807
:104050009BB2984633787F2B20D80021174A4346DD
:104060003800FFF793FF09E07F222B7838009A424F
:10407000644100230022E101FFF788FFC0BCB9467C
:10408000B046F8BD33787F2B11D980210022E6E7B6
:1040900040239BB2984633787F2BDED9074C4246AB
:1040A00049462000FEF792F880212200D7E7002140
:1040B0000022D4E70020E1E7980A0020B40A00209B
:1040C00010B5142200210248FEF77AF810BDC04650
:1040D000980A0020014B18617047C046980A0020DA
:1040E00010B5054C010008222000FEF76FF80023F0
:1040F000A360E36010BDC046980A0020F8B53B4CB1
:104100001D0023780600DA09C9098A4213D000206D
:10411000002D00D0F8BD364B002B03D0210030001D
:10412000FEF762FD2369002B44D0220002213000FB
:1041300098470120EEE77F2B06D8A068002837D0EB
:104140002A002C49FEF742F8A368E289591952194E
:10415000E38892B2E281A160934214D03F2D12D93C
:10416000A589A81A071C80B240282FD82378BFB28F
:104170007F2B2DD80021AA4235D01E4A3B003000AB
:10418000FFF704FFC6E72369002B05D022000121B9
:104190003000984700280FD07F220021237830007C
:1041A0009A42494100230022C901FFF7EFFEB1E71F
:1041B0000020AFE70120ADE700213000FEF70AFE46
:1041C00030008021FEF706FE0120A3E74027CDE75F
:1041D000AA4207D0074C3A002000FDF7F7FF8021E4
:1041E0002200CBE780210022C8E7C046980A0020C1
:1041F000E92B0010B40A002010B50400FFF708F8FE
:10420000002801D1002010BDFFF70AF80028F9D1DD
:10421000B620800044430348001903790120184068
:10422000F1E7C046C0070020B6239B00584310B5F5
:10423000024B1030C01800F011FB10BDC007002069
:10424000F0B5B625AD0045432C00C646174F1034D7
:10425000E41900B5200092B200F074FB06002000C3
:1042600000F014FB3F2803D8300080BCB846F0BDF6
:104270007B190020D9789846FFF730FE0028F3D04C
:10428000200000F003FB3F280AD996239B00EA1880
:104290004346D219D97800204023FFF777FEE3E7A1
:1042A00043460020D978FFF74BFEDDE7C00700202A
:1042B000F8B50400FEF7ACFF002801D10020F8BDDE
:1042C000FEF7AEFF0028F9D1B62080004443250058
:1042D000144E2C35AD19280000F0C0FA0028EDD09E
:1042E00037190020B978FFF7F9FD0028E6D0A6239A
:1042F0009B009C466444A41921002800402200F041
:1043000021FBB978051E08D0030022000020FFF72A
:104310003DFE0028D2D02800D1E70020FFF710FE94
:10432000CCE7C046C007002070B5B624A4004443C3
:10433000094B2C34E418050092B2200000F0C0FBB9
:104340000600200000F08AFA3F2801D8300070BD36
:104350002800FFF7ADFFF9E7C0070020B6239B0058
:10436000584310B5024B2C30C01800F08FFA10BD26
:10437000C0070020B622F0B51B4C83B000212000FE
:104380009200FDF71DFFFF236371184B8026002567
:10439000E3800127082321002000760023733200E8
:1043A000278148310095073B103000F01BFA2100AF
:1043B000200049313200FF31012300972C3000F0FA
:1043C00011FA92239B00E6183000FDF7C7FA9423F8
:1043D0009B00A662E61830006562FDF7BFFA26640E
:1043E000656403B0F0BDC046C007002000C2FFFFF7
:1043F00010B5094C052200212000FDF7E1FE200048
:104400002C34103000F0DCFB200000F0D9FB01213F
:10441000200000F0FBFB10BDC0070020F0B54B7979
:10442000060083B0022B02D18B79022B03D000252A
:10443000280003B0F0BD2F4FBB78002BF7D18B784D
:1044400009253B700C780C196378242B0BD1082AB2
:1044500002D80FE0AA420DD32378E418ED18637850
:10446000ADB2242BF6D0052B20D0042B02D16379DA
:104470000A2B2ED0204C200000F008FA3F28D7D974
:104480002600103E0020F178FFF728FD0028CFD04D
:10449000200000F0FBF93F2816D992239B00E21878
:1044A000F17840230020FFF771FDC1E721003000C3
:1044B000FFF7FCFC0028BAD0A3787B702378ED18B6
:1044C000E4186378ADB2D0E7F1780020FFF738FD4B
:1044D000AEE70A4B277801930133009302220223AF
:1044E0003000E119FFF7A2FC0028A0D00E35ED192D
:1044F000ADB2BFE7C0070020D0070020C2070020F0
:10450000F8B5602314001278050013400020202B1A
:1045100012D12F4A6379277916781B023B439E42BA
:104520000AD16378222B27D007D8202B17D0212B34
:1045300002D100293DD00120F8BD232BFCD1002958
:104540003FD00229F7D1234B002BF4D0E178A37898
:1045500009020020194300E000BF0120ECE7002918
:1045600027D00229E7D11C4B002BE4D00020911D5D
:10457000FDF7F2FF0120DFE7002922D00229DAD17E
:1045800001252E00A378E478013924021C4314711C
:1045900026402C321000714000F038FB0F4B002BEE
:1045A000C9D06208002031002A4000E000BF01208D
:1045B000C2E7072321002800094AFFF723FD012055
:1045C000BAE721002800FFF705FD0120B4E7C04647
:1045D000C007002000000000592500100000000066
:1045E000C6070020F8B557464E464546DE46E0B5BC
:1045F000494F8046FA780C001E008A4264D19AB274
:1046000096239B00FD1810239B46BB442900584667
:1046100000F056FA414BD946002B18D07B79D94689
:10462000FF2B14D0002E12D0AA19924603E00135B8
:1046300055450CD07B792A789A42F8D1484600F04B
:104640001DF90028F3D1797900E000BFEFE7344B82
:10465000002B04D0484600F011F9002852D04846FB
:1046600000F014F93F2834D84A46103A9378A34210
:1046700007D001242000F0BCBB46B246A946A046A4
:10468000F8BD284B002B02D0002000E000BF002026
:10469000FFF70EFE0028ECD1234D280000F0DEF8D5
:1046A0000028E6D1002EE4D0B306E2D12C3D4046EE
:1046B000A978FFF713FC041EDBD00023002240463C
:1046C000A978FFF763FCD5E7BB788B42D9D00024EB
:1046D000D0E74D46103D0020E978FFF7FFFB0028AA
:1046E00001D1AB78C3E7484600F0D0F83F280CD999
:1046F0009222920040230020E9784A44FFF746FCCA
:10470000AB78B4E700E000BFA9E70020E978FFF745
:1047100017FCAB78ABE7C046C007002000000000E4
:104720000000000000000000EC07002010B5002091
:10473000FEF784FD10BDC04610B5FEF779FD10BD33
:10474000072210B544790379224012021A43C37834
:104750009B079B0F022B05D0032B15D00020012BAC
:1047600008D010BD02291CD00020402393424041B4
:10477000C0B2F6E702394B4259410D4B9C466144A9
:1047800091424041C0B2ECE702394B425941F0231B
:10479000002049429B001940403191424041C0B243
:1047A000DFE7044B9C46624453425A41D0B2D8E7FB
:1047B000FF03000000FEFFFFF0B5002A11D0002427
:1047C0007F274D78052D06D13D008E7835406D0050
:1047D000F6094519AB550D786419A4B24919A242DE
:1047E000EFD8F0BDF0B5C64600B5150006AA1E000C
:1047F0001378802204000F009846120295422AD8AE
:104800004069002803D00121494200F0CDFCA06995
:10481000002803D00121494200F0C6FC4346A58090
:104820006D00ADB223726B1EA381002360696D42DF
:10483000E3812760E68065812382002801D000F0B3
:104840009BFCA0690124002801D000F095FC200009
:1048500080BCB846F0BD0024F9E7C046C189028A91
:104860008B1A9BB2914202D242899B1A9BB28288D8
:10487000101C9A4200D9181C80B270470300C089EE
:104880001B8AC01A43425841C0B2704710B5C48950
:10489000018A8388621A92B28C4202D24089121A2B
:1048A00092B2981A80B210BD70B5040080690E00F3
:1048B000002803D00121494200F076FCE189228AD8
:1048C00088B28D1A93B2ADB2914202D26289AD1A0A
:1048D000ADB2A288AA4207D2904225D2618951186E
:1048E000411A89B215002182002D02D122E09B1AC3
:1048F0009BB29A42FBD9E288216853433000C91821
:10490000FDF764FC228A0125531C9BB29A4214D9FC
:10491000002362899B189BB2A0692382002801D0E2
:1049200000F02AFC280070BD811AA58989B28D4249
:10493000D8D2D3E70025238A9BB2A2899A42EBD230
:10494000E7E7C046F0B54F464646D64605008069C3
:1049500088469146C0B5002803D00121494200F0A5
:1049600023FCEA892B8A91B2D61A9CB2B6B29A423B
:1049700002D26B89F61AB6B2AF88B74209D2B942F1
:1049800054D26B89FB18CB1A9BB23E002B822C8A27
:10499000A4B2002E50D04B46B14545D89EB2A74296
:1049A00003D8E41BA4B2A742FBD9EB88381B19003B
:1049B00099462B6861439C4680B26144864225D962
:1049C0004B46584383B21A0040469A46FDF7FEFB19
:1049D0004B464046F71BE4195C432968A2B2504499
:1049E000FDF7F4FB2A8A93199BB29A4218D96A8977
:1049F0009B189BB2A8692B82002801D000F0BCFB59
:104A00003000E0BCBA46B146A846F0BD4A46404632
:104A10007243FDF7DBFB2A8A93199BB29A42E6D8D0
:104A2000AA899A42E6D2E2E7331CB7E7CB1BAA89F0
:104A30009BB29A42A9D2A4E72B8AAA899BB29A4236
:104A4000D8D2D4E7F8B5040040690E00002803D09E
:104A50000121494200F0A8FBE289218A95B2531A4C
:104A60009BB2914202D962899B1A9BB2A2889A4258
:104A700021D02B00954203D39B1A9BB29A42FBD9BB
:104A8000E28821685343C8183100FDF79FFB6B1C77
:104A90009BB29D420BD962899B189BB2606901272A
:104AA000E381002801D000F067FB3800F8BDA2893F
:104AB0009A42F3D2EFE7277A002FDAD1F5E7C04622
:104AC000F8B545464E46DE4657468846E0B50500F1
:104AD000161E5AD04069002803D00121494200F037
:104AE00063FBEF892B7A298ABFB289B2002B3BD1B5
:104AF0007A1AAB8892B28F4202D26989521A92B264
:104B00009A1A111C92B2B24253D8EA888EB29246D7
:104B1000F21A92B291463C009F4203D3E41AA4B227
:104B20009C42FBD250462A68604394461B1B9BB2B2
:104B3000524660449E422AD841467243FDF746FBE6
:104B4000F3199BB29F421CD8AA899A4219D368696B
:104B5000EB81002801D000F00FFB3000F0BCBB4619
:104B6000B246A946A046F8BDEA88AB8892469E4266
:104B700021D3F61A56430022B0440F001E0091467E
:104B8000C9E76A899B189BB2E1E70026E5E7534332
:104B90009BB21A0041469B46FDF718FB2200534684
:104BA00041464A445A43286892B25944FDF70EFBE5
:104BB000C6E7311CA9E7F21A92B29146ABE7C046AC
:104BC00010B504004069002803D00121494200F0DB
:104BD000EBFAA069002803D00121494200F0E4FA71
:104BE0000023E3812382A38860695B009BB25A1E85
:104BF0005B42A2816381002801D000F0BDFAA06968
:104C0000002801D000F0B8FA012010BD70B50400F2
:104C100040690D00002803D00121494200F0C4FA88
:104C2000A069002803D00121494200F0BDFA606963
:104C30002572002801D000F09FFAA069002801D059
:104C400000F09AFA012070BD10B5024800F0D8F8C3
:104C500010BDC046D811002030B54B1E012900D12F
:104C6000A7E0664A11780D112C0030349F2900D935
:104C7000A2E00470012B00D1BEE00F211478214086
:104C80000C003034092900DD98E04470022B00D17B
:104C9000B2E054782511290030319F2C00D990E0E2
:104CA0008170032B00D1A7E00F2121400C0030348C
:104CB000092900DD87E0C470042B00D19CE09478C2
:104CC0002511290030319F2C00D97FE00171052B7F
:104CD00000D191E00F2121400C003034092900DD82
:104CE00076E04471062B00D186E0D47825112900A6
:104CF00030319F2C00D96EE08171072B00D17BE011
:104D00000F2121400C003034092966DCC471082BC6
:104D100000D171E014792511290030319F2C5FD822
:104D20000172092B68D00F2121400C003034092971
:104D300058DC44720A2B5FD0547925112900303198
:104D40009F2C52D881720B2B56D00F2121400C0082
:104D5000303409294BDCC4720C2B4DD094792511C9
:104D6000290030319F2C00D9073101730D2B43D01E
:104D70000F2121400C003034092901DD37310C00AE
:104D800044730E2B38D0D1790C11220030329F2978
:104D900000D9073282730F2B2ED00F220A40110048
:104DA0003731092A01DC30321100C173102B23D0B6
:104DB00010300023037030BD07345AE737310C0040
:104DC00063E707316CE737310C0074E707317DE7A3
:104DD00037310C0085E707318EE737310C0095E756
:104DE00007319DE737310C00A3E70731AAE73731D8
:104DF0000C00C4720C2BB1D1C018DAE7D811002016
:104E000030B5002589B004000922002101A80095D1
:104E1000FDF7D6F90922002105A80495FDF7D0F980
:104E20004B236A466846137004A90D2200F09CF9D2
:104E30001521082220006944FDF7C8F909B030BDEA
:104E4000F8B5DE4657464E4645468346E0B5052052
:104E50000C00FCF7A5FF0600600821008019FDF793
:104E6000BFF8430098468044070005214046FDF7FF
:104E7000B7F83B1A9A46204B8146700080199C4235
:104E800034D81E49FDF7ACF8451C5B461C6800236E
:104E9000E36622680433534006221A4080235B01F4
:104EA00023431A605346E3614B4623624346012085
:104EB0004F2B03D950214046FDF792F8A023220042
:104EC000E0508023E06F7C3245402D045B011343AA
:104ED0002D0C1D60012339003000E366FDF780F8DA
:104EE000F0BCBB46B246A946A046F8BD0449FDF752
:104EF00077F8451CC9E7C0463F420F0080969800EE
:104F000040787D01104A70B5821A53425A410723F6
:104F100052429A430D4B10321A600D4B0D4C1A60E1
:104F20001500A3689D432B1EFAD166240268FF3446
:104F30000571D5661460633C8833FF3CD563956387
:104F4000D450FFF77DFF70BD6004002000E00040FA
:104F500000F0004000C00040F0B557464E464546C0
:104F6000DE4690460022E0B583B01E000CAB1B78F5
:104F700084469A460368DA6601325960DA66002E82
:104F80004FDD51464A405202019280229146320042
:104F90008025771E0020464610219046AD00002453
:104FA000002804D162461479621E9441A4020022B2
:104FB0009346B8421AD0325C22435C4622431A61BF
:104FC0005A6B1142FCD04A469C58002C11D1B84271
:104FD00022D001308045E2D1634652461A7103B0B7
:104FE000F0BCBB46B246A946A046F0BD019A934626
:104FF000E1E75A6D012293465A6B2A42FCD01A6EA1
:105000005A46002AE5D0002C03D0E30701D4230739
:10501000E2D402204042DFE75246002AD9D1D346EB
:10502000EAE70020D8E7C04603BDC04610B504003B
:10503000FBF73AFDA04710BDF0B5040087B00F2084
:105040000E001700FBF7AEFA002105000F20FBF75A
:1050500097FA002300220092019301230293D023A8
:1050600004960594002600240121022003971B06C4
:10507000002C14D01A6D1042FCD05C6540BF1A6D34
:10508000114203D120BF1A6D1142FBD09A6DA2428A
:105090000AD000266C46B200A458E9E79A6D1A6D52
:1050A0001142FBD140BFE5E70136052EF2D92900B8
:1050B0000F20FBF765FA07B0F0BDC0460B4B0C4A5A
:1050C00010B5934201D201235B421900094A98505E
:1050D00004329B50084A094B0948CA50094B9A6848
:1050E000044B9C466144FFF7A7FF10BD0008042055
:1050F00000000420F40700002D500010FC07000001
:105100002950001000ED00E010B583070AD003001D
:10511000032102E001330B4205D01A78002AF9D1AD
:10512000181A10BD030019680C4A0D4C8A188A43DE
:1051300022420FD15968094A04338A188A4322420D
:1051400008D15968054A04338A188A432242F1D0AB
:1051500000E001331A78002AFBD1E1E7FFFEFEFEF2
:1051600080808080F8B5C04601B40248844601BC06
:10517000604700BF8D02002001B40248844601BC94
:10518000604700BFED01002001B40248844601BC25
:10519000604700BF5103002001B40248844601BCAF
:1051A000604700BF0901002001B40248844601BCE9
:1051B000604700BF4D01002001B40248844601BC95
:0851C000604700BFC1000020A0
:1051C8004E6F207370696E6C6F636B7320617265CC
:1051D80020617661696C61626C6500004E6F2075B4
:1051E800736572204952517320617265206176613E
:1051F800696C61626C650000486172647761726510
:1052080020616C61726D20256420616C7265616437
:105218007920636C61696D65640000000A2A2A2A96
:105228002050414E4943202A2A2A0A000A00000039
:1052380048617264206173736572740052656C65AD
:1052480061736500626F6F74325F77323571303821
:1052580030000000312E342E300000007069636F7A
:105268000000000069326300536570203136203237
:105278003032330006005250BBFF3CB66452001077
:1052880006005250E182887F4C52001006005250AE
:10529800D3F07542445200100D0A0000AD240010EE
:1052A800B1240010BD240010E9240010E5240010EA
:1052B8000000000055534220737464696E202F204B
:1052C8007374646F757400000600525053B4F4A1EF
:1052D800BC52001052617370626572727920506915
:1052E800000000005069636F00000000426F6172A7
:1052F8006420434443000000526573657400000055
:1053080009025400030100807D080B00020202001C
:105318000009040000010202000405240020010520
:105328002401000104240202052406000107058166
:105338000308001009040100020A00000007050222
:105348000240000007058202400000090402000034
:10535800FF00010512010002EF0201408A2E0A0037
:10536800000101020301000000000000DC520010EF
:10537800EC52001000120020F452001000530010EC
:10538800556E68616E646C656420495251203078AE
:1053980025780A00657020256420257320776173BD
:1053A80020616C726561647920617661696C616203
:1053B8006C65000043616E277420636F6E74696EBC
:1053C80075652078666572206F6E20696E616374FA
:1053D800697665206570202564202573000000002B
:1053E8006F757400696E000034330010303500109A
:1053F800C2340010763400105834001040340010C5
:10540800D433001082330010763300100C380010AB
:10541800F23700102E3400108A3800102E34001095
:10542800723800105E3800102E3400104A38001010
:10543800203800102E3400107A3B0010A4380010D9
:10544800AA3B00102E3400102E3400108C3B0010A4
:10545800A43800102E3400102E3400102E34001002
:105468002E3400102E3400102E3400102E3400106C
:105478006A3B001075430010F14300101D440010F2
:0C54880001450010E54500100000000088
:10549400B4020010A80200109C0200107C520010FC
:1054A400900200108852001094520010D052001044
:1054B400D02330B500251B0600245D5706E00368A1
:1054C400BFF35F8F1C6081F3108820BF0268EFF385
:1054D400108172B61368002BFCD0BFF35F8F037981
:1054E4007F2BECD905710368BFF35F8F00221A602C
:1054F40081F3108830BDC04603000068EFF3108CC0
:1055040072B60268002AFCD0BFF35F8F04229A5659
:10551400002A0BDB00290FD000200A601B68BFF3B0
:105524005F8F00221A608CF310887047D022120615
:10553400126801201A71F1E70020EFE7F0B5C646C2
:1055440000B582B00C00070000F0FEF8FA22002338
:105554000090019120009200002100F0FDF8009AD3
:10556400019B14001D0024184D41AB422FD82BD0B1
:10557400D0231B061B68002698460BE03B68BFF34C
:105584005F8F1E6081F310882000290000F0ECF882
:10559400002820D13A68EFF3108172B61368002B0B
:1055A400FCD0BFF35F8F3B797F2BE7D943463B7138
:1055B4003B68BFF35F8F00221A6081F310880120DB
:1055C40002B080BCB846F0BD009BA342D0D90124F0
:1055D4006442E517CCE70020F2E7C0460268EFF327
:1055E400108172B61368002BFCD0BFF35F8FFF23CA
:1055F40003710368BFF35F8F00221A6081F3108880
:1056040040BF7047084810B50378002B0AD18023A7
:105614000649074A5B051C68CC5004339342FAD10F
:105624000123037010BDC04618120020200C001086
:105634000001001010B5024B0133984710BDC0465D
:10564400200C0020034B1A68C0239B009343024A9A
:10565400136070470C8001400C900140054B1A68A0
:1056640080239B005340C02292001340024A1360DF
:105674007047C0460C8001400C9001401423F0B5E3
:10568400D6464F4646469A46814618880433C0B5E6
:1056940098460E001B882749140098475346070074
:1056A4001888434624491B889847534605001888A0
:1056B400434622491B8898478046FFF7A3FFB84713
:1056C400A847FFF7CBFF002C1BD0C02122000827DE
:1056D400022049053D008B6A1D4018420BD0002C66
:1056E40009D0131B0D2B1FD84B461B78013C0B66AE
:1056F40001239C46E1442300002D0CD11343002BCD
:10570400E8D1FFF79FFFC047FFF794FFE0BCBA461C
:10571400B146A846F0BD002AF1D00B6E013A3370B1
:10572400130001362343EAE7002DD3D0002AD1D059
:10573400F3E7C046494600004558000046430000D0
:105744007047C0460000000001B40248844601BC12
:10575400604700BFDD13001001B40248844601BC59
:10576400604700BFED20001001B40248844601BC2C
:10577400604700BF39120010100000000000000054
:105784000000010000000000000000000000020012
:105794000000000000000000000003000000000002
:1057A400000000000000FF000000000000B5486891
:1057B40001318E460047704609380149884700BDCB
:1057C400F5090010EC0300200000000098040020FC
:1057D4004C0D002000000000000000005C0D0020C3
:1057E40000000000000000001000000000000000A5
:1057F400503300004C330000543300005233000097
:105804004D5300004D430000533400004334000066
:10581400F5250010000000008D2500100000000098
:1058240000010000E8530010EC530010500B00205E
:1058340010000C000000E0FF1F000000000000004A
:105844000000000000000000000000000000000054
:1058540000400440000000000080044000000000FC
:105864000000000000000000000000000000000034
:10587400B12100106D1F00102D20001021210010F7
:08588400ED020010494C001078
:04000005100001E9FD
:00000001FF
